:020000040000FA
:0400000080313F28E4
:100008007E1480310B1F09280A283D282100111E63
:100018000E280F281A282000111E132814281A2821
:1000280075088A0074080A0080313D282100911E55
:100038001E281F282A282000911E232824282A2821
:1000480036088A0035080A0080313D282100111C35
:100058002E282F283D282000111C332834283D281D
:1000680082311E2280313D283D283D283D283D28EB
:100078003D287E10090080314128863084002630D2
:1000880085006A30FE000130FF0082319122803104
:10009800F001F101F201F301F401F501F60120008C
:1000A800B301B401B501B601B7017E10200081315A
:1000B8000A29AF2886308600263087004431010897
:1000C800023E2000A700003003180130A800893044
:1000D800A9002630AA0027082907860028082A3DF3
:1000E80087000108AB002B08AC000D302C06031963
:1000F8007E287F2886280A302C06031D8428852818
:10010800A2288628370803198A288B289D288B302F
:10011800A0002730A1008A30860027308700010818
:10012800A7002708A2008231D82280312000B70119
:100138009D28823101228031AF28AF2820002C0869
:100148008131512180318231012280312000B70173
:10015800B70AAF28AF2881318A218031003A031DC0
:10016800B628B7285E28B8280800FD008630860023
:1001780026308700443186308400263085000331DC
:1001880000080106031DC928CA28D328CB288630B1
:1001980086002630870042310114D328D3288630C0
:1001A80086002630870043310108023EF700003000
:1001B80003180130F8008930F9002630FA00770872
:1001C8007907FB0078087A3DFC007B0886007C08EC
:1001D80087007D0881000130F700863086002630D0
:1001E80087004331770881078630860026308700EC
:1001F8004331010A031D0129022909298630860095
:1002080026308700433181010929080082319D2267
:1002180081312000B101B2018B170B17132920007F
:100228003109AD003209AE00AD0A0319AE0A8231B8
:10023800AF22813120002D082007AF002E08213D74
:10024800B00000303002333003192F02031C2D296F
:100258002E294A292F29031022000E1D03140318E2
:100268003629392922000E153B2922000E113C2976
:100278008231AF22813120002108B2002008B1006C
:10028800523023009A00210011164A2980315D203E
:1002980081311329132980313F282000A6008A3094
:1002A8008600273087000108013EA00000300318AF
:1002B8000130A1008A30A2002730A30020082207BD
:1002C800A4002108233DA5002408860025088700EE
:1002D800260881000130A0008A3086002730870078
:1002E800200881078A3086002730870065300102A0
:1002F800031C7F2980298929812986308600263098
:10030800870042310115892989290800863086002D
:10031800263087004331863084002630850004313A
:1003280000080102031899299A29AD298630860008
:10033800263087004331863084002630850004311A
:100348000003FF3A0107FF3E2000A0002008A1009B
:10035800BF298630860026308700433186308400E6
:100368002630850004310003FF3A01072000A00071
:100378002008A100BF292108C129080021009112E5
:10038800C8302000A0000230A1008231C222813191
:1003980021001112D5302000A0000230A1008231C6
:1003A800BC228131083023009F0090309D0024300A
:1003B8009E0044309B009C012100911608002200F9
:1003C8008C018E01363021008C002B308E002300EA
:1003D8008E0136308C0024008C018E0125008C01A2
:1003E8008E01373026008C003F308E0015303C00DF
:1003F800A40014303D00A400080086308600263092
:1004080087004431010A031D0A2A0B2A122A863062
:10041800860026308700443181011D2A01302000E2
:10042800A0008630860026308700443120088107E6
:100438001D2A080001302000B3070030B43D111018
:100448007308F8007208F70082316422823170085C
:1004580071040319302A312A372A71088A00700872
:100468000A008231372A080020009C0163309A0074
:10047800C03099001A08F3001908F2001110210081
:100488001114D9302000A0000230A1008231B62218
:100498008231113020009B0008008231A72282316E
:1004A8008131E32182318231762282318231CE223A
:1004B80082318231382282318131C2218231080071
:1004C80020001B1D682A692A702A1B1078089A00C8
:1004D800770899001B14752A78089A0077089900FC
:1004E800752A0800320099019B019D0106309F0082
:1004F8009E017E2A1C1C812A822A7E2A832A0800C1
:100508008630860026308700433181018630860098
:1005180026308700443181010800640080010131E0
:100528000130FE020030FF3B7F087E04031D922A43
:1005380000348231512282318231842282318231E7
:10054800D222823108003200910192019301940174
:1005580095019601080020003408A1003308A00086
:10056800B52A080020002108F1002008F000080042
:1005780020002108F5002008F400080020002108C8
:10058800B6002008B5000800230019088031B920FA
:10059800823108001630210097000800F601D42A9D
:0C05A800080021001112080008000800E3
:020000040001F9
:08000E008CFFF3FFFFFFFFFF71
:00000001FF
