:020000040000FA
:0400000080313F28E4
:100008007E1480310B1F09280A283D282100111E63
:100018000E280F281A282000111E132814281A2821
:100028007C088A007B080A0080313D282100911E47
:100038001E281F282A282000911E232824282A2821
:1000480037088A0036080A0080313D282100111C33
:100058002E282F283D282000111C332834283D281D
:1000680082316C2280313D283D283D283D283D289D
:100078003D287E10090080314128863084002630D2
:1000880085006A30FE000130FF008231D2228031C3
:10009800F701F801F901FA01FB01FC012000B601A2
:1000A800B7017E1020008031592800302000B500AB
:1000B8000030B4000030B3000030B200B101B10A22
:1000C8008231FE2280318231822280318B170B17D8
:1000D8006D288031CF2080317228722820003508A1
:1000E800B0003408AF003308AE003208AD0001306C
:1000F800B2070030B33DB43DB53D3008031D8E282E
:10010800A0302D0286302E3B01302F3B031C8D285A
:100118008E2872288F280030B5000030B4000030D7
:10012800B3000030B200982822000E159D289D28A3
:100138009D2820003508B0003408AF003308AE0011
:100148003208AD000130B2070030B33DB43DB53DD3
:100158003008031DB928A0302D0286302E3B01300F
:100168002F3B031CB828B9289D28BA2822000E1155
:10017800BD2800302000B5000030B4000030B300C6
:100188000030B200523023009A00210011166D2869
:100198006D2880313F28863086002630870044311C
:1001A8000108023E2000A700003003180130A80013
:1001B8008930A9002630AA002708290786002808C0
:1001C8002A3D87000108AB002B08AC002B2986309C
:1001D80086002630870044310108023E2000A7002F
:1001E800003003180130A8008930A9002630AA0081
:1001F80027082907860028082A3D87000108AB0040
:100208002B08AC000D302C0603190B290C291729D3
:100218000A302C0603191129122917292C088131B3
:100228008621803127298B302000A0002730A100AB
:100238008A308600273087000108A7002708A20017
:100248008231A72280318231362280312B298131B7
:10025800BF218031003A031D32293329EB28342984
:100268000800F60086308600263087004431863044
:10027800840026308500033100080106031D452946
:1002880046294F2947298630860026308700423183
:1002980001144F294F2986308600263087004331C4
:1002A8000108023EF000003003180130F1008930E7
:1002B800F2002630F30070087207F4007108733DED
:1002C800F5007408860075088700760881000130FB
:1002D800F000863086002630870043317008810799
:1002E80086308600263087004331010A031D7D29A8
:1002F8007E29852986308600263087004331810192
:10030800852908002000A6008A308600273087004B
:100318000108013EA000003003180130A1008A3016
:10032800A2002730A30020082207A4002108233DAB
:10033800A5002408860025088700260881000130CA
:10034800A0008A30860027308700200881078A307D
:1003580086002730870065300102031CB429B529BF
:10036800BE29B6298630860026308700423101151D
:10037800BE29BE2908008630860026308700433112
:1003880086308400263085000431000801020318F5
:10039800CE29CF29E22986308600263087004331CE
:1003A800863084002630850004310003FF3A0107B7
:1003B800FF3E2000A0002008A100F4298630860016
:1003C800263087004331863084002630850004318A
:1003D8000003FF3A01072000A0002008A100F4292B
:1003E8002108F629080021009112F8302000A00009
:1003F8000230A1008231F22281312100111206302F
:100408002000A0000330A1008231EC2281310830A5
:1004180023009F0090309D0024309E0044309B00B4
:100428009C0121009116080022008C018E013630B3
:1004380021008C002B308E0023008E0136308C007A
:1004480024008C018E0125008C018E013730260096
:100458008C003F308E0015303C00A40014303D0065
:10046800A400080086308600263087004431010A3F
:10047800031D3F2A402A472A8630860026308700F7
:1004880044318101522A01302000A00086308600C4
:1004980026308700443120088107522A08002000AE
:1004A8009C0163309A00C03099001A08FA001908B4
:1004B800F90011102100111409302000A0000330A8
:1004C800A1008231E6228231113020009B00080011
:1004D800200011107A08F1007908F0008231952285
:1004E80082317708780403197A2A7B2A812A7808C6
:1004F8008A0077080A008231812A08008231DE22C8
:1005080082318231182282318231B722823183319D
:10051800022382318231532282318131F7218231A3
:10052800080020001B1D992A9A2AA12A1B1071086D
:100538009A00700899001B14A62A71089A0070087E
:100548009900A62A080020002008860021088700B4
:1005580001080319B02AB12AB62A0130A3002308DA
:10056800A207B62A0800320099019B019D010630B6
:100578009F009E01BF2A1C1CC22AC32ABF2AC42A64
:100588000800863086002630870043318101863096
:10059800860026308700443181010800640080010C
:1005A80001310130FE020030FF3B7F087E04031D4D
:1005B800D32A0034320091019201930194019501EC
:1005C8009601080020002108F8002008F70008001C
:1005D80020002108FC002008FB000800200021085A
:1005E800B7002008B600080023001908813135211A
:1005F800823108008231C52282310800163021007C
:0C060800970008002100111208000800F3
:020000040001F9
:08000E008CFFF3FFFFFFFFFF71
:00000001FF
