:020000040000FA
:0400000080313028F3
:100008007E1480310B1F09280A282E282100111E72
:100018000E280F281A282000111E132814281A2821
:1000280039088A0038080A0080312E282100911EDC
:100038001E281F282E282000911E232824282E2819
:1000480037088A0036080A0080312E282E282E28E4
:100058002E282E287E100900803132288630840010
:10006800263085006A30FE000130FF0082317B2295
:1000780080312000B601B701B801B9017E10200017
:100088008031462800302000B5000030B400003030
:10009800B3000030B200B101B10A8231A12280312F
:1000A8008231502280318B170B175A288031BC209F
:1000B80080315F285F2820003508B0003408AF0081
:1000C8003308AE003208AD000130B2070030B33D4E
:1000D800B43DB53D3008031D7B28A0302D02863085
:1000E8002E3B01302F3B031C7A287B285F287C2875
:1000F8000030B5000030B4000030B3000030B2006A
:10010800852822000E158A288A288A282000350882
:10011800B0003408AF003308AE003208AD0001303B
:10012800B2070030B33DB43DB53D3008031DA628E5
:10013800A0302D0286302E3B01302F3B031CA52812
:10014800A6288A28A72822000E11AA2800302000F5
:10015800B5000030B4000030B3000030B2005230B7
:1001680023009A00210011165A285A288031302875
:10017800863086002630870044310108023E200080
:10018800A700003003180130A8008930A9002630E4
:10019800AA0027082907860028082A3D87000108A1
:1001A800AB002B08AC001829863086002630870063
:1001B80044310108023E2000A70000300318013036
:1001C800A8008930A9002630AA0027082907860038
:1001D80028082A3D87000108AB002B08AC000D3029
:1001E8002C060319F828F92804290A302C060319C3
:1001F800FE28FF2804292C08813173218031142915
:100208008B302000A0002730A1008A3086002730DC
:1002180087000108A7002708A20082314022803108
:1002280082312322803118298131AC218031003A72
:10023800031D1F292029D82821290800F600863007
:1002480086002630870044318630840026308500B9
:10025800033100080106031D322933293C293429BA
:100268008630860026308700423101143C293C291B
:10027800863086002630870043310108023EF000B0
:10028800003003180130F1008930F2002630F30005
:1002980070087207F4007108733DF5007408860051
:1002A80075088700760881000130F00086308600E6
:1002B8002630870043317008810786308600263053
:1002C80087004331010A031D6A296B297229863088
:1002D80086002630870043318101722908002000FA
:1002E800A6008A308600273087000108013EA0005A
:1002F800003003180130A1008A30A2002730A30083
:1003080020082207A4002108233DA5002408860010
:1003180025088700260881000130A0008A30860061
:1003280027308700200881078A3086002730870019
:1003380065300102031CA129A229AB29A329863013
:1003480086002630870042310115AB29AB29080009
:100358008630860026308700433186308400263078
:1003680085000431000801020318BB29BC29CF29E4
:100378008630860026308700433186308400263058
:10038800850004310003FF3A0107FF3E2000A0006A
:100398002008A100E12986308600263087004331F5
:1003A800863084002630850004310003FF3A0107B7
:1003B8002000A0002008A100E1292108E329080065
:1003C800210091129B302000A0000230A100823150
:1003D8009522813121001112A9302000A00002309D
:1003E800A10082318F228131083023009F00903094
:1003F8009D0024309E0044309B009C0121009116F2
:10040800080022008C018E01363021008C002B3030
:100418008E0023008E0136308C0024008C018E0162
:1004280025008C018E01373026008C003F308E006D
:1004380015303C00A40014303D00A40008008630AC
:100448008600263087004431010A031D2C2A2D2AF4
:10045800342A8630860026308700443181013F2ABD
:1004680001302000A0008630860026308700443105
:10047800200881073F2A080020002008860021085C
:10048800870001080319492A4A2A4F2A0130A30084
:100498002308A2074F2A080082318722823182313D
:1004A800052282318231602282318231A522823155
:1004B8008131E42182310800320099019B019D01BC
:1004C80006309F009E01682A1C1C6B2A6C2A682A29
:1004D8006D2A080086308600263087004331810166
:1004E8008630860026308700443181010800640088
:1004F800800101310130FE020030FF3B7F087E049D
:10050800031D7C2A00343200910192019301940169
:1005180095019601080020002108B9002008B800BC
:10052800080020002108B7002008B60008002300B2
:100538001908813122218231080082316E228231EC
:100548000800163021009700080021001112080049
:020000040001F9
:08000E008CFFF3FFFFFFFFFF71
:00000001FF
