:0600000080315A280000C7
:0800080083018031200077081C
:10001000A0007808A1007908A2007A08A300850151
:1000200091308400001E1628111A2628850191306F
:100030008400801E1D28911A28282008F700210816
:10004000F8002208F9002308FA00090080313B2853
:1000500080313028111E2A2823009A002000080031
:10006000911E3028230019082000A70027082A2005
:10007000911280311D2821000E1122000E11210045
:1000800011122000111280311D2820308500063009
:1000900084000008031959280A30F800F701F70B0B
:1000A0004F28F80B4E285F30F700F70B5528800BD0
:1000B0004C280800F030210099001A1F5D28230009
:1000C0009F1544309B0000309C00A6309E0090306D
:1000D0009D008C018E0122009201910194019301F7
:1000E0000B138B138B1B7128210091161116C03036
:1000F0008B040E1122000E1502302000A500FA30EC
:10010000A6004520A50B7F2821000E1122000E110C
:1001100002302000A500FA30A6004520A50B8B2850
:0A01200052302A20210079286300E4
:020000040001F9
:04000E00843F131602
:00000001FF
;PIC16LF1825
;CRC=C387  CREATED="14-окт-18 17:25"
